:100000000A128A11C22FFF1B0D2883137F18831732
:100010000008840A0319FF0A080000308A00040857
:10002000840A8207003446346534633468346134AA
:100030002C3448346F34723461342C345434653485
:100040006D3470342C34483475346D340D340A34C6
:10005000003449346E3469346334693461346E3445
:1000600064346F342E342E342E34003453344434FC
:1000700020344534723472346F3472342134003495
:1000800044344134543441342E3454345834543488
:1000900000345334443420344F344B34213400344E
:1000A0004D3465346434693461343A340034203476
:1000B0004D34613478343A3400344D3469346E341C
:1000C0003A34003425342034203400342034483489
:1000D0003A34003420346E343D34003454343A34ED
:1000E0000034831603130712831203130712080048
:1000F000831203135708E4008030E4055708DC003E
:100100005C07E600D61F85288628872866146608BF
:1001100003198B288C289C28660A031D9028912897
:1001200099280030D7000030D6000030D5000030CC
:10013000D400D617D701A4280030D7000030D6004D
:100140000030D5000030D4005B08E5008030E505C4
:10015000650864060319AD28AE28AF2864175B084C
:10016000DC005C07E500DA1FB628B728B82865145C
:1001700065080319BC28BD28CD28650A031DC128C0
:10018000C228CA280030DB000030DA000030D90075
:100190000030D800DA17DB01D5280030DB00003052
:1001A000DA000030D9000030D80066086502031874
:1001B000DA28DB28FF28641FDE28DF28E1288030CA
:1001C000E4066608E7006508E6006708E5005408ED
:1001D000E7005808D4006708D8005508E700590818
:1001E000D5006708D9005608E7005A08D600670806
:1001F000DA005708E7005B08D7006708DB00E70173
:100200006508DC00DD015D08DF0066085C02DE00D9
:10021000031CDF035F08803AFF0080307F02031D6C
:1002200013291A305E02031C162917294C29831240
:1002300003135708560455045404031D202922298A
:10024000013023290030E7000030D7000030D6000D
:100250000030D5000030D4006508E6005429671C42
:10026000322933293A296708DC0003105C0C013875
:10027000E7003C290310E70C541C3F294029412981
:10028000E7170130DC00570DD70CD60CD50CD40C79
:10029000DC0B43290130E60783120313650866026D
:1002A000031C532954292F29641B572958299F2996
:1002B0006608031D5C295D2966290030D7000030DF
:1002C000D6000030D5000030D400C72A5808D40723
:1002D000590803110318013E03196F29D5075A085D
:1002E00003110318013E03197629D6075B08031191
:1002F0000318013E03197D29D707571C802981293E
:10030000532A671C842985298C296708DC0003107F
:100310005C0C0138E7008E290310E70C541C91296E
:1003200092299329E7170130DC00570DD70CD60C22
:10033000D50CD40CDC0B95290130E607532A57085D
:10034000803AFF005B08803A7F02031DB1295A08FA
:100350005602031DB12959085502031DB129580839
:1003600054020318B429B5290C2AFF30DC00FF30F1
:10037000DD00FF30DE00FF30DF005808E0005908E4
:10038000E1005A08E2005B08E3005408E002550867
:10039000031C550FCC29CD29E1025608031C560F2A
:1003A000D229D329E2025708031C570FD829D9298B
:1003B000E3026008DC0761080318610FE029E12906
:1003C000DD0762080318620FE629E729DE076308E4
:1003D0000318630ADF075F08D7005E08D6005D08D0
:1003E000D5005C08D4008030E4066703FF3AE700DC
:1003F0006708031DFC29FD291A2A0130D4070030A3
:1004000003180130D507003003180130D60700303B
:1004100003180130D7071A2A5808D4025908031CB8
:10042000590FD5025A08031C5A0FD6025B08031C49
:100430005B0FD7025708560455045404031D212AA4
:10044000222A4F2A6708031D262A272A4F2A00300E
:10045000D7000030D6000030D5000030D400C72AC5
:100460000130DC000310D40DD50DD60DD70DDC0BFB
:10047000322AE71F3C2A3D2A3E2A5414671C412A8F
:10048000422A462A0314670DE700482A0310E70DA5
:10049000660803194C2A4D2A4F2A0130E602D61F5E
:1004A000522A532A302AE501E71F572A582A662A7A
:1004B00067087F3903195D2A5E2A612A0130E50049
:1004C000662A541C642A652A662A5E2A650803196E
:1004D0006A2A6B2A9D2A0130D407003003180130A4
:1004E000D507003003180130D6070030031801305B
:1004F000D707571C7C2A7D2A9D2A5408DC00550802
:10050000DD005608DE005708DF000130E0005F0D17
:10051000DF0CDE0CDD0CDC0CE00B872A5F08D7005B
:100520005E08D6005D08D5005C08D400660A031991
:100530009A2A9B2A9D2A0130E607660A0319A12AF6
:10054000A22AA72A6608031DA62AA72AB52A0030D0
:10055000D7000030D6000030D5000030D400660847
:10056000031DB32AB42AB52AE401661CB82AB92AA5
:10057000BB2AD617BD2A7F30D6056608DC000310DB
:100580005C0CD700E41FC52AC62AC72AD717080063
:10059000003083160313C6000030C5000030C400CD
:1005A0000030C3000030C2000030C1000030C00085
:1005B0000030BF00B701B901BC01831603178801E1
:1005C00089018316031305150A168A15E4260A12F3
:1005D0008A110A168A15A3220A128A11F401F40A52
:1005E00001300A168A15A0230A128A1117308312C5
:1005F0000313A5000A168A1578230A128A110A160F
:100600008A158F220A128A110A168A154C220A129A
:100610008A11033083160313B6008A30B5005530B3
:10062000B400B40B112BB50B112BB60B112BF4012D
:10063000F40A02300A168A15A0230A128A110A1631
:100640008A1111240A128A11003A0319282B292B26
:100650004E2B0A168A1540220A128A11003A0319F3
:10066000322B332B4E2B013083160313B700373058
:1006700083120313A5000A168A1578230A128A1119
:100680002E3083120313B3000130B4008030B50064
:100690000A168A15AC250A128A11572B24308312A8
:1006A0000313A5000A168A1578230A128A110D3041
:1006B00083160313B600AF30B500B530B400B40BE9
:1006C0005F2BB50B5F2BB60B5F2B662B0A168A15BB
:1006D000A3220A128A11C730FA000030FB000A1662
:1006E0008A116E260A128A11C33083120313D400B2
:1006F000BF30D5000A168A1103250A128A11831603
:100700000313B8004608F3004508F2004408F1005E
:100710004308F0000A168A152A230A128A11C730E4
:1007200083160313A8000030A9004608AD00450851
:10073000AC004408AB004308AA004208B1004108DD
:10074000B0004008AF003F08AE000A168A117022C0
:100750000A128A110D3083160313B600AF30B500AC
:10076000B530B400B40BB22BB50BB22BB60BB22B19
:10077000B92B0A168A15F5230A128A11003A0319B1
:10078000C22BC32B082C831603133C08013EBC006C
:100790000130BC050A168A15A3220A128A11831693
:1007A00003133C03031DD52BD62BE12B0A128A150C
:1007B00059210A128A110A168A1571270A128A11FA
:1007C000FA2BC730A8000030A9004608AD00450844
:1007D000AC004408AB004308AA004208B10041083D
:1007E000B0004008AF003F08AE000A168A11702220
:1007F0000A128A11063083160313B6001330B500AF
:10080000AD30B400B40B022CB50B022CB60B022C8D
:10081000C730FA000030FB000A168A116E260A1251
:100820008A11831603133908031D172C182C332C37
:10083000C33083120313D400BF30D5000A168A11C7
:1008400003250A128A1183160313B8004608F30021
:100850004508F2004408F1004308F0000A168A1522
:100860002A230A128A11831603133C08031D392C0C
:100870003A2C532CC730A8000030A9004608AD0020
:100880004508AC004408AB004308AA004208B10088
:100890004108B0004008AF003F08AE000A168A11B8
:1008A00070220A128A110530F8000030F900831610
:1008B00003133908013EFA00003003180130FB0031
:1008C0000A168A1501260A128A117808831603135C
:1008D000B9003C08031D6D2C6E2CAA2B0530F800C6
:1008E0000030F9004808B400B5013408FA003508B2
:1008F000FB000A168A1501260A128A117808790463
:10090000031D832C842CAA2B8316031348086E0620
:1009100003198B2C8C2CAA2B4808EE0037080319DE
:10092000922C932CAA2B38080319972C982CAA2BBD
:10093000C230F3002030F2000030F1000030F0004F
:100940004608F7004508F6004408F5004308F4009F
:100950000A168A111A210A128A110318B02CB12C16
:10096000AA2B831603134608F3004508F200440837
:10097000F1004308F0004230F700A030F6000030EC
:10098000F5000030F4000A168A111A210A128A11A1
:100990000318CB2CCC2CAA2B83160313CE014E08A4
:1009A000983E84000A30F0000030F1004B08B4009B
:1009B000B5013408F2003508F3000A168A11252023
:1009C0000A128A117008303E8317800001308316A6
:1009D0000313CE074E08983E84000A30F80000301A
:1009E000F9004B08B400B5013408FA003508FB00E3
:1009F0000A168A1501260A128A117808303E8317D2
:100A00008000013083160313CE074E08983E840001
:100A10002F3080000130CE074E08983E84000A3007
:100A2000F0000030F1004C08B400B5013408F200C9
:100A30003508F3000A168A1125200A128A11700857
:100A4000303E83178000013083160313CE074E0813
:100A5000983E84000A30F8000030F9004C08B400D9
:100A6000B5013408FA003508FB000A168A1501267C
:100A70000A128A117808303E8317800001308316ED
:100A80000313CE074E08983E84002F3080000130BB
:100A9000CE074E08983E84000A30F0000030F10086
:100AA0004D08B400B5013408F2003508F3000A1609
:100AB0008A1125200A128A117008303E831780009F
:100AC000013083160313CE074E08983E84000A3087
:100AD000F8000030F9004D08B400B5013408FA0000
:100AE0003508FB000A168A1501260A128A117808B1
:100AF000303E83178000013083160313CE074E0863
:100B0000983E84002C3080000130CE074E08983E7D
:100B100084000A30F0000030F1004908B400B5014B
:100B20003408F2003508F3000A168A1125200A124B
:100B30008A117008303E831780000130831603133A
:100B4000CE074E08983E84000A30F8000030F900C5
:100B50004908B400B5013408FA003508FB000A164C
:100B60008A1501260A128A117808303E8317800000
:100B7000013083160313CE074E08983E84003A30A6
:100B800080000130CE074E08983E84000A30F00005
:100B90000030F1004808B400B5013408F20035080F
:100BA000F3000A168A1125200A128A117008303EB5
:100BB00083178000013083160313CE074E08983E3A
:100BC00084000A30F8000030F9004808B400B5018C
:100BD0003408FA003508FB000A168A1501260A12A5
:100BE0008A117808303E8317800001308316031382
:100BF000CE074E08983E84002C3080000130CE078E
:100C0000460883120313C100831603134508831299
:100C10000313C00083160313440883120313BF0099
:100C200083160313430883120313BE004130BD0033
:100C30002030BC000030BB000030BA000A128A1518
:100C4000BE240A128A11831203133D08DB003C08FC
:100C5000DA003B08D9003A08D8003F30D70000300E
:100C6000D6000030D5000030D4000A128A11782056
:100C70000A128A11831203135708EB005608EA0080
:100C80005508E9005408E8000A168A1558260A1281
:100C90008A1183120313690883160313BE0083129B
:100CA0000313680883160313BD00BE1F582E592E68
:100CB000662E4E08983E84002D3083178000013048
:100CC000CE07BD09BE09BD0A0319BE0A4E08983EEB
:100CD00084006430F0000030F1003E08F3003D086D
:100CE000F2000A168A1125200A128A117008303E75
:100CF00083178000013083160313CE074E08983EF9
:100D000084000A30F8000030F9000A30F0000030AA
:100D1000F1003E08F3003D08F2000A168A11252072
:100D20000A128A117108FB007008FA000A168A1567
:100D300001260A128A117808303E8317800001309C
:100D400083160313CE074E08983E84002E30800091
:100D50000130CE074E08983E84000A30F80000307B
:100D6000F9003E08FB003D08FA000A168A15012624
:100D70000A128A117808303E8317800001308316EA
:100D80000313CE074E08983E84002C3080000130BB
:100D9000CE07420883120313C100831603134108D0
:100DA00083120313C0008316031340088312031336
:100DB000BF00831603133F0883120313BE004130A4
:100DC000BD002030BC000030BB000030BA000A1269
:100DD0008A15BE240A128A11831203133D08DB0010
:100DE0003C08DA003B08D9003A08D8003F30D70069
:100DF0000030D6000030D5000030D4000A128A112D
:100E000078200A128A11831203135708EB00560840
:100E1000EA005508E9005408E8000A168A15582621
:100E20000A128A1183120313690883160313BB0085
:100E300083120313680883160313BA004E08983E02
:100E400084006430F0000030F1003B08F3003A0801
:100E5000F2000A168A1592240A128A117008303E8E
:100E600083178000013083160313CE074E08983E87
:100E700084000A30F7000030F8000A30F00000303B
:100E8000F1003B08F3003A08F2000A168A15922492
:100E90000A128A117108FA007008F9000A168A15F8
:100EA0005A240A128A117708303E831780000130D5
:100EB00083160313CE074E08983E84002E30800020
:100EC0000130CE074E08983E84000A30F70000300B
:100ED000F8003B08FA003A08F9000A168A155A2465
:100EE0000A128A117708303E83178000013083167A
:100EF0000313CE074E08983E84000D308000013069
:100F0000CE074E08983E84000A3080000130CE079C
:100F10004E08983E840080012E3083120313B300E4
:100F20009830B4000130B5000A168A15AC250A12B3
:100F30008A11003A03199D2F9E2FBB2F1030F40009
:100F400002300A168A15A0230A128A1153300A1693
:100F50008A15D4240A128A11083083160313B600A6
:100F60009D30B5000530B400B40BB42FB50BB42FD1
:100F7000B60BB42FAA2B83160313B701AA2B0A12A0
:100F80008A110028831603170A168A1521220A12CD
:100F90008A11BB000A168A1522220A128A11BC0085
:100FA0000A168A1523220A128A11BD000A168A150A
:100FB00024220A128A11BE00831603130A168A110C
:100FC00000200A128A11EE000A168A1101200A1264
:100FD0008A11EF00831790308400BB300A168A15FF
:100FE0002C220A128A118313CF308400EE300A16A5
:100FF0008A152C220A128A1183010A128A11C82A20
:101002007008023EF20071080318013E003EF30030
:10101200720884008317731C831380017008013ED9
:10102200F40071080318013E003EF50074088400C4
:101032008317751C83138001700884008317711C49
:10104200831380017008063EF20071080318013E06
:10105200003EF300720884008317731C831380011F
:101062007008053EF40071080318013E003EF500C9
:10107200740884008317751C831380017008043E72
:10108200F60071080318013E003EF700760884005E
:101092008317771C831380017008033EF8007108E0
:1010A2000318013E003EF900780884008317791C7A
:1010B200831380010800831203130614FF300A16FB
:1010C2008A15C8230A128A15073083120313AE0049
:1010D2007C30AD00AD0B6B28AE0B6B280000831289
:1010E20003130610073083120313AE007C30AD00E9
:1010F200AD0B7928AE0B7928000083120313270861
:10110200F9002608F8002508F7002408F600183030
:101112000A168A1188200A128A1583120313B00054
:1011220030080319952896289E280614FF300A16BF
:101132008A15C8230A128A15582907308312031305
:10114200AE007C30AD00AD0BA428AE0BA42800008D
:10115200FE300A168A15C8230A128A15831203134F
:10116200B101B20129083202031DB928280831024F
:10117200031CBC28BD28E9282C082807AD00290833
:101182000318290AAE002E083202031DCA282D08B0
:1011920031020318CD28CE28E9282B08AE002808F2
:1011A2002A02AD00031CAE0331082D0784002E086D
:1011B20003182E0AFF000A128A1103200A128A1546
:1011C200AF002F080A168A15C8230A128A15EF28BB
:1011D200FF300A168A15C8230A128A1501308312B3
:1011E2000313B1070318B20A0030B2070230320209
:1011F200003003193102031CFF280029B328FF30F5
:101202000A168A15C8230A128A15FF300A168A1589
:10121200C8230A128A15FF300A168A15C8230A1231
:101222008A1583120313B0001F303005AD0005305C
:101232002D0603191D291E2926290614FF300A1618
:101242008A15C8230A128A155829B101B2013E290A
:10125200FF300A168A15C8230A128A15831203134D
:10126200B0003008031936293729382947290130B7
:10127200B1070318B20A0030B207EA303202603016
:1012820003193102031C4629472929290614FF3074
:101292000A168A15C8230A128A158230831203138A
:1012A200AE00DD30AD00AD0B5429AE0B5429080061
:1012B200831603136C08031D5F29602970296D08CA
:1012C20083120313E800E901680883160313A000E0
:1012D20083120313690883160313A10074290430CF
:1012E200A0000030A1002008A6000030A5000030B8
:1012F200A4000030A3000030A2002608031D8229AA
:1013020083298429F32A2608DF005208E3005108C2
:10131200E2005008E1004F08E0005208E7005108DF
:10132200E6005008E5004F08E400A701992A2708C3
:1013320083120313E80001300310E80DFF3E031D82
:101342009D290310680DCF3E840083130008D4004A
:10135200840A0008D500840A0008D600840A00081E
:10136200D70083160313250883120313DB008316A9
:101372000313240883120313DA00831603132308CA
:1013820083120313D9008316031322088312031353
:10139200D8000A128A1178200A128A1583120313BE
:1013A200570883160313A5008312031356088316E6
:1013B2000313A40083120313550883160313A30017
:1013C20083120313540883160313A20027088312FF
:1013D2000313E80001300310E80DFF3E031DEC2962
:1013E2000310680DCF3E840083130008F000840AC6
:1013F2000008F100840A0008F200840A0008F300E1
:10140200E030E9000030EA006908840083176A1CB2
:1014120083130008F400840A0008F500840A000817
:10142200F600840A0008F7000A168A111A210A1225
:101432008A1503181D2A1E2A3C2A8316031327081D
:1014420083120313E80001300310E80DFF3E031D71
:10145200252A0310680DCF3E8400831300088316EB
:101462000313E000840A0008E100840A0008E20095
:10147200840A0008E300E43083120313E80000301A
:10148200E900680884008317691C83130008F000D0
:10149200840A0008F100840A0008F200840A0008A5
:1014A200F30083160313270883120313EA000130A3
:1014B2000310EA0DFF3E031D592A03106A0DCF3EA9
:1014C200840083130008F400840A0008F500840AEB
:1014D2000008F600840A0008F7000A168A111A2189
:1014E2000A128A150318762A772A952A8316031375
:1014F200270883120313E80001300310E80DFF3EB2
:10150200031D7E2A0310680DCF3E8400831300085A
:1015120083160313E400840A0008E500840A000825
:10152200E600840A0008E700013083160313A707C8
:1015320026082702031C9E2A9F2A9829260883121E
:101542000313E800E901EA01EB016B08F3006A0802
:10155200F2006908F1006808F00001300A168A11E9
:10156200BC210A128A15730883120313A30072089E
:10157200A2007108A1007008A000831603132508B9
:1015820083120313A7008316031324088312031381
:10159200A60083160313230883120313A5008316E0
:1015A2000313220883120313A4000A128A15F422D9
:1015B2000A128A1583120313230883160313EB00FE
:1015C20083120313220883160313EA008312031300
:1015D200210883160313E9008312031320088316DC
:1015E2000313E8000800831203132708B1008030B8
:1015F200B1052708A8002807B800A61F012B022B57
:10160200032B381438080319072B082B182B380A18
:10161200031D0C2B0D2B152B0030A7000030A6004C
:101622000030A5000030A400A617A701202B00302F
:10163200A7000030A6000030A5000030A400230857
:101642008039B1062308A8002807B900A21F2A2B57
:101652002B2B2C2B391439080319302B312B412B0E
:10166200390A031D352B362B3E2B0030A3000030E8
:10167200A2000030A1000030A000A217A301492B54
:101682000030A3000030A2000030A1000030A00012
:101692002308220421042004031D502B512B682B04
:1016A2000030A7000030A6000030A5000030A400E2
:1016B2008030A6047F30A7043108A7042708A300BE
:1016C2002608A2002508A1002408A000BD2C380885
:1016D200031D6C2B6D2B762B0030A3000030A20073
:1016E2000030A1000030A000BD2C3808A800A901DC
:1016F2002908AB0039082802AA00031CAB032A08F8
:101702007F3EB2002B080318013E003EB3002708BB
:10171200B0002608AF002508AE002408AD00003056
:10172200A7000030A6000030A5000030A400003061
:10173200B7000030B6000030B5000030B400B90187
:10174200EA2B39080319A62BA72BC72B0130A800B7
:101752000310AD0DAE0DAF0DB00DA80BA92B0130CE
:10176200A8000310A40DA50DA60DA70DA80BB22B62
:10177200B71FBC2BBD2BBE2B24140130A8000310B5
:10178200B40DB50DB60DB70DA80BC02B2308300252
:10179200031DD52B22082F02031DD52B21082E0253
:1017A200031DD52B20082D02031CD82BD92BE82B87
:1017B20037172008AD022108031C210FAE022208B0
:1017C200031C220FAF022308031C230FB0020130B7
:1017D200B9071A303902031CEF2BF02BA22B300869
:1017E2002F042E042D040319F72BF82B172C341475
:1017F200172C0130A8000310A40DA50DA60DA70DEE
:10180200A80BFC2BB71F062C072C082C2414013024
:10181200A8000310B40DB50DB60DB70DA80B0A2C18
:10182200FF30B2070318B30AFF30B307A61F1A2C02
:101832001B2CFA2BB901B71F1F2C202C3C2CFF307C
:101842003405A800FF303505A900FF303605AA008F
:101852007F303705AB002B082A042904280403191A
:10186200332C342C372C0130B9003C2C241C3A2C5C
:101872003B2C3C2C342C39080319402C412C722C63
:101882000130A407003003180130A5070030031807
:101892000130A607003003180130A707271C522C7D
:1018A200532C722C2408A8002508A9002608AA0097
:1018B2002708AB000130AC002B0DAB0CAA0CA90C15
:1018C200A80CAC0B5D2C2B08A7002A08A60029083F
:1018D200A5002808A4000130B2070318B30A00309B
:1018E200B3073308803AFF0080307F02031D7B2C50
:1018F200FF303202031C7E2C7F2C8D2CFF30831292
:101902000313B2000030B3000030A7000030A6007D
:101912000030A5000030A400831203133308803A7C
:10192200FF0080307F02031D982C01303202031821
:101932009B2C9C2CA92C83120313B201B3010030FF
:10194200A7000030A6000030A5000030A400B101BD
:10195200831203133208B800381CB02CB12CB32CFC
:10196200A617B52C7F30A6053808A8000310280C4E
:10197200A7003108A7045F2B0800831203133D0858
:10198200C7008030C7053D08C2004207CD00BC1F1A
:10199200CB2CCC2CCD2C4D144D080319D12CD22C90
:1019A200E12C4D0A031DD62CD72CDF2C0030BD00B4
:1019B2000030BC000030BB000030BA00BC17E92C7C
:1019C2000030BD000030BC000030BB000030BA0067
:1019D20041088039C7064108C2004207CC00C01F37
:1019E200F32CF42CF52C4C144C080319F92CFA2C7A
:1019F200092D4C0A031DFE2CFF2C072D0030C100BF
:101A02000030C0000030BF000030BE00C017112DF2
:101A12000030C1000030C0000030BF000030BE0006
:101A22004C080319152D162D1B2D4D08031D1A2DBB
:101A32001B2D242D0030BD000030BC000030BB0047
:101A42000030BA00FF2F3A08F00040080A168A1543
:101A520051230A128A15710883120313D3007008E6
:101A6200D2005208C200C301C401C5014508CB001F
:101A72004408CA004308C9004208C8005308C2000B
:101A8200C301C401C5014508D1004408D000430880
:101A9200CF004208CE003B08F0003F080A168A1524
:101AA20051230A128A15710883120313D300700896
:101AB200D2005208C200C301C401C5014208C807CE
:101AC200430803110318013E0319682DC90744088E
:101AD20003110318013E03196F2DCA0745080311AC
:101AE2000318013E0319762DCB075308C200C30128
:101AF200C401C5014208CE07430803110318013E81
:101B02000319842DCF07440803110318013E03195A
:101B12008B2DD007450803110318013E0319922D9E
:101B2200D1073C08F0003E080A168A1551230A1212
:101B32008A15710883120313D3007008D200520869
:101B4200C200C301C401C5014208C807430803110A
:101B52000318013E0319AE2DC907440803110318E7
:101B6200013E0319B52DCA07450803110318013EAA
:101B72000319BC2DCB075308C200C301C401C50120
:101B82004208CE07430803110318013E0319CA2D68
:101B9200CF07440803110318013E0319D12DD007C2
:101BA200450803110318013E0319D82DD107083047
:101BB200C2000310C80DC90DCA0DCB0DC20BDA2D20
:101BC2003B08F0003E080A168A1551230A128A15AC
:101BD200710883120313D3007008D2005208C200A6
:101BE2005308C300C401C5014208C80743080311D2
:101BF2000318013E0319FE2DC907440803110318F7
:101C0200013E0319052ECA07450803110318013EB8
:101C120003190C2ECB073A08F0003F080A168A1562
:101C220051230A128A15710883120313D300700814
:101C3200D2005208C2005308C300C401C5014208C1
:101C4200C807430803110318013E0319292EC907C7
:101C5200440803110318013E0319302ECA07450830
:101C620003110318013E0319372ECB070830C200B7
:101C72000310C80DC90DCA0DCB0DC20B392E3A087F
:101C8200F0003E080A168A1551230A128A157108B5
:101C920083120313D3007008D2005208C200530803
:101CA200C300C401C5014208C80743080311031851
:101CB200013E03195D2EC907440803110318013EB2
:101CC2000319642ECA07450803110318013E0319BC
:101CD2006B2ECB073B08F00040080A168A155123E9
:101CE2000A128A15710883120313D3007008D200F6
:101CF2005208C2005308C300C401C5014208CE07FE
:101D0200430803110318013E0319882ECF07440824
:101D120003110318013E03198F2ED0074508031142
:101D22000318013E0319962ED1073C08F0003F0824
:101D32000A168A1551230A128A157108831203138F
:101D4200D3007008D2005208C2005308C300C40175
:101D5200C5014208CE07430803110318013E0319C7
:101D6200B32ECF07440803110318013E0319BA2EFC
:101D7200D007450803110318013E0319C12ED107EC
:101D82003C08F00040080A168A1551230A128A15E7
:101D9200710883120313D3007008D2005208C200E4
:101DA2005308C300C401C50108300310C20DC30D9E
:101DB200C40DC50DFF3E031DD62E4208CE074308B3
:101DC20003110318013E0319E72ECF07440803113C
:101DD2000318013E0319EE2ED0074508031103181C
:101DE200013E0319F52ED1074808C2004908C30075
:101DF2004A08C4004B08C50018300310C50CC40CB7
:101E0200C30CC20CFF3E031DFE2E4208CE07430840
:101E120003110318013E03190F2FCF0744080311C2
:101E22000318013E0319162FD007450803110318A2
:101E3200013E03191D2FD1070830C2000310C80D3F
:101E4200C90DCA0DCB0DC20B1F2F4D084C07C20086
:101E5200C301C30D4208823ED20043080318013E6B
:101E6200FF3ED300512F0130C2000310CE0DCF0D23
:101E7200D00DD10DC20B362FCB1F402F412F422F39
:101E82004E140130C2000310C80DC90DCA0DCB0D8E
:101E9200C20B442FFF30D2070318D30AFF30D307F7
:101EA200D01F542F552F342FCC01CB1F592F5A2F0F
:101EB200762FFF304805C200FF304905C300FF30CE
:101EC2004A05C4007F304B05C5004508440443045D
:101ED200420403196D2F6E2F712F0130CC00762F23
:101EE2004E1C742F752F762F6E2F4C0803197A2FE4
:101EF2007B2FAC2F0130CE07003003180130CF0703
:101F0200003003180130D007003003180130D10728
:101F1200511C8C2F8D2FAC2F4E08C2004F08C300CE
:101F22005008C4005108C5000130C600450DC50C5B
:101F3200C40CC30CC20CC60B972F4508D100440831
:101F4200D0004308CF004208CE000130D207031868
:101F5200D30A0030D3075308803AFF0080307F0253
:101F6200031DB52FFF305202031CB82FB92FC42F07
:101F72007F3083120313D1008030D0000030CF00B5
:101F82000030CE00F52F831203135308803AFF006E
:101F920080307F02031DCF2F013052020318D22F4F
:101FA200D32FDF2F003083120313D1000030D00073
:101FB2000030CF000030CE00C701F52F831203138B
:101FC2005208CD00FF30CE05FF30CF057F30D0055F
:101FD2000030D1054D1CEE2FEF2FF02FD0174D08FA
:101FE200C2000310420CD1004708D1045108BD00C1
:101FF2005008BC004F08BB004E08BA000800FF346E
:102002000134F30083120313081173080A168A15A8
:1020120008230A168A118312031388151A30F20054
:10202200F830F100F10B1328F20B13280000831291
:10203200031388111A30F200F830F100F10B1F2857
:10204200F20B1F2800000800F501F11F29282A2899
:102052003128F009F109F00A0319F10A0130F500FB
:10206200F31F342835283C28F209F309F20A031930
:10207200F30A0130F506F601F7017008710403193D
:102082004328442879280130F400502801300310F5
:10209200F00DF10DFF3E031D48280130F407F11F3A
:1020A20053285428472801300310F60DF70DFF3E40
:1020B200031D552871087302031D612870087202FE
:1020C200031C642865286C287008F2027108031C3E
:1020D200F303F302761401300310F10CF00CFF3E0F
:1020E200031D6D280130F402031D78287928542835
:1020F200750803197D287E288328F609F709F60A50
:102102000319F70A7708F1007608F0000800831235
:102112000313A300FF30A0002308031D9128922877
:1021220094289530A00008302306031D99289A2888
:102132009C288730A000FF300A168A15C8230A1689
:102142008A1183120313230840380A168A15C823FA
:102152000A168A117608FA007708FB007808FC0054
:102162007908FD0018300310FD0CFC0CFB0CFA0C76
:10217200FF3E031DB4287A080A168A15C8230A16D8
:102182008A117608FA007708FB007808FC007908C3
:10219200FD0010300310FD0CFC0CFB0CFA0CFF3E92
:1021A200031DCB287A080A168A15C8230A168A1133
:1021B2007608FA007708FB007808FC007908FD0031
:1021C20008300310FD0CFC0CFB0CFA0CFF3E031D47
:1021D200E2287A080A168A15C8230A168A1176088E
:1021E2000A168A15C8230A168A11831203132008B5
:1021F2000A168A15C8230A168A1183120313A2012A
:10220200FF300A168A15C8230A168A11831203138D
:10221200A100A11B0D290E2910292108192901301D
:10222200A2070A302202031C172918290129FF30AC
:10223200080000307005F80000307105F9008030A8
:102242007205FA007F307305FB007B087A0479047B
:102252007804031D2D292E2936290030F300003081
:10226200F2000030F1000030F00000307405F80098
:1022720000307505F90080307605FA007F30770569
:10228200FB007B087A0479047804031D49294A2952
:1022920052290030F7000030F6000030F50000301F
:1022A200F400F31F552956297A290030F80000302E
:1022B200F9000030FA008030FB007008F802710863
:1022C200031C710F65296629F9027208031C720F3B
:1022D2006B296C29FA027308031C730F7129722986
:1022E200FB027B08F3007A08F2007908F100780813
:1022F200F000F71F7D297E29A2290030F800003066
:10230200F9000030FA008030FB007408F80275080A
:10231200031C750F8D298E29F9027608031C760F8E
:1023220093299429FA027708031C770F99299A298D
:10233200FB027B08F7007A08F6007908F5007808B6
:10234200F4008030F3068030F70677087302031D2D
:10235200B42976087202031DB42975087102031D9F
:10236200B429740870020318B729B829BA290310CE
:10237200BB2903140800F80078080319C129C229EF
:10238200D629F31FC529C629D6297009FA00710971
:10239200FB007209FC007309FD00FA0A0319FB0A2B
:1023A2000319FC0A0319FD0ADE297308FD007208ED
:1023B200FC007108FB007008FA00730872047104D3
:1023C2007004031DE529E629EF290030F3000030EF
:1023D200F2000030F1000030F0006F2A9630F90070
:1023E200FD290130F90701300310FD0CFC0CFB0C38
:1023F200FA0CFF3E031DF529FE307D05031D022A5E
:10240200032AF2291D2A0130F9070130FA070030A8
:1024120003180130FB07003003180130FC070030BD
:1024220003180130FD0701300310FD0CFC0CFB0CFE
:10243200FA0CFF3E031D152AFF307D05031D222ADB
:10244200232A042A2F2A0130F9020130F400031052
:10245200FA0DFB0DFC0DFD0DF40B282AFC1B322A94
:10246200332A392A023079020318382A392A242ACF
:1024720079183C2A3D2A452AFF30FA05FF30FB0530
:102482007F30FC05FF30FD050310F90C7908F400DC
:10249200F501F601F70118300310F40DF50DF60DF4
:1024A200F70DFF3E031D4D2A7408FA047508FB045C
:1024B2007608FC047708FD0478080319612A622A69
:1024C200672AF31F652A662A672AFD177D08F3002B
:1024D2007C08F2007B08F1007A08F0000800F401A1
:1024E200F40A01300A168A15A0230A168A118316E5
:1024F20003132808043EB20029080318013E003ED7
:10250200B300320884008317331C831300080A16B1
:102512008A1526240A168A112F300A168A15D424FF
:102522000A168A11831603132808053EB2002908E9
:102532000318013E003EB300320884008317331CA7
:10254200831300080A168A1526240A168A112F30C8
:102552000A168A15D4240A168A1183160313280828
:10256200063EB20029080318013E003EB3003208BD
:1025720084008317331C831300080A168A15262445
:102582000A168A11523083120313A5000A168A15FD
:1025920078230A168A11831603132808023EB20012
:1025A20029080318013E003EB30032088400831755
:1025B200331C831300080A168A1526240A168A1168
:1025C2003A300A168A15D4240A168A11831603137E
:1025D2002808013EB20029080318013E003EB3005C
:1025E200320884008317331C831300080A168A15E5
:1025F20026240A168A11F401F40A02300A168A15F0
:10260200A0230A168A115C3083120313A5000A164E
:102612008A1578230A168A11831603132D08A5003A
:102622002C08A4002B08A3002A08A2000A168A116B
:102632003E230A168A11543083120313A5000A1688
:102642008A1578230A168A11831603133108A50006
:102652003008A4002F08A3002E08A2000A168A112F
:102662003E230A168A11503083120313A5000A165C
:102672008A1578230A168A1108008316031325087F
:1026820083120313C1008316031324088312031356
:10269200C00083160313230883120313BF0083169B
:1026A2000313220883120313BE004130BD00203001
:1026B200BC000030BB000030BA000A128A15BE24EA
:1026C2000A168A11831203133D08DB003C08DA0064
:1026D2003B08D9003A08D8003F30D7000030D60076
:1026E2000030D5000030D4000A128A1178200A1670
:1026F2008A11831203135708EB005608EA005508A3
:10270200E9005408E8000A168A1558260A168A11A2
:1027120083120313690883160313A700831203139A
:10272200680883160313A6002508F3002408F200A4
:102732002308F1002208F0000030F7000030F60014
:102742000030F5000030F4000A168A111A210A1628
:102752008A110318AD2BAE2BBB2B2D300A168A150E
:10276200D4240A168A1183160313A609A709A60AF6
:102772000319A70A6430F0000030F1008316031336
:102782002708F3002608F2000A168A1592240A1670
:102792008A117008303E0A168A15D4240A168A1144
:1027A2000A30F7000030F8000A30F0000030F10083
:1027B200831603132708F3002608F2000A168A1567
:1027C20092240A168A117108FA007008F9000A1692
:1027D2008A155A240A168A117708303E0A168A1573
:1027E200D4240A168A112E300A168A15D4240A16FF
:1027F2008A110A30F7000030F80083160313270805
:10280200FA002608F9000A168A155A240A168A11AD
:102812007708303E0A168A15D4240A168A1108004F
:102822000A168A1534220A168A1183120313061411
:10283200A701FF300A168A15C8230A168A11013029
:1028420083120313A7070A302702031C292C2A2C00
:102852001A2C0610073083120313A5007C30A40043
:10286200A40B312CA50B312C000083120313A801F9
:10287200A9010030F9000030F8000030F700003004
:10288200F60000300A168A1188200A168A11013AC7
:10289200031D4C2C4D2C4E2C5F2C01308312031344
:1028A200A8070318A90A0030A90700302902C83076
:1028B20003192802031C5E2C5F2C3A2C0030831271
:1028C20003132902C83003192802031C692C6A2C3D
:1028D2006D2C06140030022D0030F9000030F80093
:1028E2000130F700AA30F60008300A168A11882053
:1028F2000A168A1183120313A6002603031D822CD3
:10290200832C942CA701FF300A168A15C8230A16B5
:102912008A11013083120313A70704302702031C14
:10292200932C942C842CA801A9010030F9000030CA
:10293200F8000030F7000030F60037300A168A112E
:1029420088200A168A114030F9000030F800003061
:10295200F7000030F60029300A168A1188200A167C
:102962008A11003A031DB62CB72CB82CD42C413056
:1029720083120313A500ED30A400A40BBE2CA50BFB
:10298200BE2CC32C013083120313A8070318A90A13
:102992000030A90701302902F43003192802031C70
:1029A200D32CD42C962C0130831203132902F43039
:1029B20003192802031CDE2CDF2CE12C06146B2CDD
:1029C2000030F9000030F8000230F7000030F60065
:1029D20010300A168A1188200A168A11003A031941
:1029E200F32CF42CF82C8312031306146B2C831291
:1029F20003130614FF300A168A15C8230A168A1111
:102A02000130080083120313071175308312031378
:102A1200D700E030D600D60B0C2DD70B0C2D0000C2
:102A2200831203130715413083120313D600D60B0A
:102A3200182D1B2D83160313071583120313071D6D
:102A4200232D242D2C2D8316031307118312031318
:102A5200071500306D2E843083120313D600D60B77
:102A6200302D0000831203130719382D392D402D04
:102A72008316031307118312031307152A2D8430BB
:102A820083120313D600D60B442D000083120313C6
:102A9200E501DC01E401071D4F2D502D4C2D39308D
:102AA20083120313D600D60B542D00008312031396
:102AB200071D5C2D5D2D6A2D0130D6006408073C90
:102AC200013E652D0310D60DFF3E031D632D5608F2
:102AD200DC0407196D2D6E2D6A2D0130E4070830D4
:102AE2006402031C752D762D4C2D65085D3E840015
:102AF2005C08831380000130E50705306502031C82
:102B0200832D842D4A2D8316031307118312031379
:102B120007155F085E07D60060085607D7005D08F4
:102B220057076106031D962D972D2A2D5E08D600A4
:102B3200D7015D08D800D9015808D900D801560834
:102B42005804DA0057085904DB006008D600D701A0
:102B52005F08D800D9015808D900D801560858048E
:102B6200E20057085904E300E31FB82DB92D062EE1
:102B7200BF30BD008030BC000030BB000030BA0066
:102B82004130A3002030A2000030A1000030A0009C
:102B9200FF306205F0007F306305F100F201F301BE
:102BA20000300A168A11BC210A168A117308831290
:102BB2000313A7007208A6007108A5007008A400FC
:102BC2000A128A15F4220A168A11831203132308A1
:102BD200C1002208C0002108BF002008BE000A125E
:102BE2008A15BE240A168A1183120313540884001C
:102BF2003A0883138000840A3B088000840A3C0858
:102C02008000840A3D088000392E4130A300203024
:102C1200A2000030A1000030A0006208F0006308AA
:102C2200F100F201F30100300A168A11BC210A16E2
:102C32008A11730883120313A7007208A600710891
:102C4200A5007008A4000A128A15F4220A168A1135
:102C52008312031354088400200883138000840A1B
:102C620021088000840A22088000840A2308800048
:102C72004130A3002030A2000030A1000030A000AB
:102C82005A08F0005B08F100F201F30100300A1665
:102C92008A11BC210A168A11730883120313A70032
:102CA2007208A6007108A5007008A4000A128A150D
:102CB200F4220A168A11831203135508840020088D
:102CC20083138000840A21088000840A220880007D
:102CD200840A23088000013008000A168A157C2223
:102CE2000A168A11003A031D772E782E822E7A0850
:102CF200F0007B08F1000A128A1501200A168A11D7
:102D0200FF2F0A168A15EB220A168A11D0300A16EC
:102D12008A1519250A168A11003A031D912E922E40
:102D2200982E0A168A15CF220A168A11782E00309A
:102D32000A168A1519250A168A11003A031DA22EAF
:102D4200A32EA42E922E0A168A15EB220A168A1197
:102D5200D1300A168A1519250A168A11003A031D5E
:102D6200B32EB42EB52E922E01300A168A15602586
:102D72000A168A1183120313A0007A0884008317AB
:102D82007B1C831320087F390A168A15B9220A167A
:102D92008A11800001300A168A1560250A168A11E6
:102DA20083120313A0007A08013EFC007B0803187B
:102DB200013E003EFD007C08840083177D1C8313C6
:102DC20020087F390A168A15B9220A168A1180004C
:102DD20001300A168A1560250A168A118312031316
:102DE200A0007A08023EFC007B080318013E003E68
:102DF200FD007C08840083177D1C831320083F3963
:102E02000A168A15B9220A168A11800001300A169A
:102E12008A1560250A168A1183120313A0007A0804
:102E2200033EFC007B080318013E003EFD007C08C7
:102E3200840083177D1C8313200807390A168A151C
:102E4200B9220A168A11800001300A168A156025F5
:102E52000A168A1183120313A0007A08043EFC00AA
:102E62007B080318013E003EFD007C0884008317A6
:102E72007D1C831320083F390A168A15B9220A16C7
:102E82008A11800001300A168A1560250A168A11F5
:102E920083120313A0007A08053EFC007B08031886
:102EA200013E003EFD007C08840083177D1C8313D5
:102EB20020081F390A168A15B9220A168A118000BB
:102EC20000300A168A1560250A168A118312031326
:102ED200A0007A08063EFC007B080318013E003E73
:102EE200FD007C08840083177D1C831320080A16CA
:102EF2008A15B9220A168A1180000A168A15CF226B
:102F02000A168A117A08840083177B1C83133C30CB
:102F1200000203188D2F8E2F782E7A08013EFC00B6
:102F22007B080318013E003EFD007C0884008317E5
:102F32007D1C83133C3000020318A02FA12F782E92
:102F42007A08023EFC007B080318013E003EFD00A9
:102F52007C08840083177D1C831318300002031839
:102F6200B32FB42F782E7A08043EFC007B08031896
:102F7200013E003EFD007C08840083177D1C831304
:102F820000080319C52FC62F782E7A08043EFC00CC
:102F92007B080318013E003EFD007C088400831775
:102FA2007D1C8313203000020318D82FD92F782ECE
:102FB2007A08053EFC007B080318013E003EFD0036
:102FC2007C08840083177D1C831300080319EA2FF1
:102FD200EB2F782E7A08053EFC007B080318013E91
:102FE200003EFD007C08840083177D1C83130D3096
:0E2FF2000002031CFD2FFE2FFF2F782E08007B
:103432008316031387150800831603130716080063
:10344200E8340334003400348316031387118312E3
:1034520003138711080064008001840A040603191B
:10346200003404062D2A831603130610861006154F
:103472008611831203130614861186140800003085
:1034820083160317BE000030BD000330BC00E830D5
:10349200BB00013008000A168A155A220A168A153C
:1034A200C330F200CD30F100F10B552AF20B552A50
:1034B20008000A168A151D220A168A150A168A1586
:1034C20019220A168A150830F000F00B662A080045
:1034D200F200F101721C6E2A6F2A712A7008F1073C
:1034E2000310F00D0310F20C7208031D792A7A2AD8
:1034F2006B2A710808000A168A15EB220A168A1529
:10350200D0300A168A1519250A168A15F4000A16E9
:103512008A15CF220A168A15740808008316031327
:1035220007118312031307150330F2008A30F100EA
:103532005530F000F00B9B2AF10B9B2AF20B9B2AD1
:10354200A22A080000300A168A1102200A168A15D9
:1035520001300A168A1102200A168A158230F500F5
:10356200DD30F400F40BB32AF50BB32AB82A0800B5
:10357200F5000F307505F3000A30F0007508F4000D
:1035820004300310F40CFF3E031DC22A74080A160D
:103592008A1569220A168A15730708000A128A1107
:1035A20071200A168A150830F000F00BD62A0A1686
:1035B2008A1519220A168A150830F000F00BDF2A44
:1035C2000A168A151D220A168A150830F000F00B19
:1035D200E82A08000A168A151D220A168A150A16F2
:1035E2008A1519220A168A150830F000F00BF72AFC
:1035F2000A128A1171200A168A150830F000F00B9F
:10360200002B0A168A1525220A168A150800F000D0
:10361200701C0C2B0D2B112B831203130816142B69
:10362200831203130812F01C172B182B1A2B88165F
:103632001B2B8812701D1E2B1F2B212B0817222BD0
:103642000813F01D252B262B282B8817292B8813CE
:103652000800831603136D08F40001300310F40D03
:10366200FF3E031D2F2B0310740DCF3E8400700804
:1036720083138000840A71088000840A7208800023
:10368200840A730880006D08013EED000330ED05E9
:103692006D08031D4D2B4E2B502B0130EC00080002
:1036A200F800F401F5017008F200F3017208F60067
:1036B2007308F700781C5E2B5F2B652B7608F407E6
:1036C2000318F50A7708F50701300310F60DF70D18
:1036D200FF3E031D662B0310F80C7808031D722BA6
:1036E200732B5B2B7508F1007408F000080083123D
:1036F2000313A601A701922B2608250784000A12AC
:103702008A110D200A168A150A168A15D4240A1659
:103712008A15013083120313A6070318A70A003083
:10372200A7072608250784000A128A110D200A1607
:103732008A15003A031D9E2B9F2B7D2B0800F60055
:103742007603031DA52BA62BAA2B74087F3EF90036
:10375200AD2B7408BF3EF9007908F5000430031060
:10376200F50CFF3E031DB02B7508F7007908F80031
:103772000F30F80577080A168A1102200A168A15F0
:1037820078080A168A1102200A168A150800F30020
:10379200F501F401F31BCE2BD22B831203138614F3
:1037A200D52B8312031386100310F30D8615D92B24
:1037B200DA2B000083120313060CF000700C01399F
:1037C200F1007508F20072077104F5008611E92B09
:1037D200EA2B00000130F40708307402031CF22BBC
:1037E200F32BCB2B7508080083120313050CF00092
:1037F200700C0139F2007208031D002C012C1B2CE5
:10380200831603136F03031D072C082C1B2CC330D4
:10381200F100CD30F000F00B0C2CF10B0C2C8312CC
:1038220003130519152C162C1B2C83160313EF01F9
:103832000130252C7203031D1F2C202C242C013057
:1038420083160313EF000030080083120313A7004E
:103852000A30F0000030F1002708A500A601250873
:10386200F2002608F3000A168A1125200A168A1584
:103872007008303E0A168A15D4240A168A150A30B0
:10388200F8000030F900831203132708A500A601EF
:103892002508FA002608FB000A168A1501260A16D0
:1038A2008A157808303E0A168A15D4240A168A1513
:1038B20008007708780403195F2C602C8D2C0130E6
:1038C200FB006C2C01300310F70DF80DFF3E031DB9
:1038D200642C0130FB07F81F6F2C702C632C7808C6
:1038E2007A02031D762C77087902031C792C7A2C34
:1038F200802C7708F9027808031CFA03FA020130D7
:103902000310F80CF70CFF3E031D812C0130FB0263
:10391200031D8C2C8D2C702C7A08F8007908F70086
:103922000800F401F501700871040319992C9A2C0E
:10393200CF2C0130F600A62C01300310F00DF10D52
:10394200FF3E031D9E2C0130F607F11FA92CAA2C65
:103952009D2C01300310F40DF50DFF3E031DAB2C21
:1039620071087302031DB72C70087202031CBA2C73
:10397200BB2CC22C7008F2027108031CF303F30281
:10398200741401300310F10CF00CFF3E031DC32C24
:103992000130F602031DCE2CCF2CAA2C7508F100A3
:1039A2007408F000080083120313A4002408A20084
:1039B2000F30A2052408A300F030A3050815230840
:1039C200A00004300310A00CFF3E031DE32C2008CE
:1039D2000A168A1508230A168A15831203138815F4
:1039E200413083120313A000A00BF52CF82C831294
:1039F2000313881122080A168A1508230A168A1543
:103A0200831203138815413083120313A000A00B05
:103A1200082D0B2D8312031388110D30831203130B
:103A2200A100FB30A000A00B142DA10B142D080047
:103A3200F100F301F11F1E2D1F2D252D0A168A15E7
:103A42001D220A168A152A2D0A128A1171200A16B7
:103A52008A150A168A1519220A168A150830F000E4
:103A6200F00B312D0A168A1525220A168A15031023
:103A7200F10D0130F30708307302031C412D422D72
:103A82001B2D0A168A151D220A168A150A168A1570
:103A920019220A168A150830F000F00B4E2D031079
:103AA20083120313071E0314003003180130F200BF
:103AB2000A168A1525220A168A1572080800F100CC
:103AC200F2010A168A151D220A168A15F30103103D
:103AD200F20D0A168A1519220A168A150830F00004
:103AE200F00B712D83120313071E782D792D7A2D79
:103AF20072140A168A1525220A168A150130F3074E
:103B020008307302031C862D872D682D7108031956
:103B12008B2D8C2D922D0A128A1171200A168A156C
:103B2200972D0A168A151D220A168A150A168A1553
:103B320019220A168A150830F000F00B9E2D0A167B
:103B42008A1525220A168A150A168A151D220A16B0
:103B52008A157208080083120313B601B22D0130D0
:103B6200B60736083407840035080318350AFF0003
:103B72000A128A1103200A168A15003A0319C22D65
:103B8200C32DC92D32303602031CC82DC92DB02DCC
:103B9200831603173E0883120313A7008316031725
:103BA2003D0883120313A600831603173C088312F1
:103BB2000313A500831603173B0883120313A40003
:103BC2000030A800A9003408AA003508AB00360866
:103BD200AC000A128A155C200A168A150130831677
:103BE2000317BB07003003180130BC07003003186D
:103BF2000130BD07003003180130BE070130080054
:103C0200FD01FB1F052E062E0D2EFA09FB09FA0AED
:103C12000319FB0A0130FD00F91F102E112E162E7A
:103C2200F809F909F80A0319F90A78087904031955
:103C32001B2E1C2E492E0130FC00282E01300310B1
:103C4200F80DF90DFF3E031D202E0130FC07F91F70
:103C52002B2E2C2E1F2E79087B02031D322E780864
:103C62007A02031C352E362E3C2E7808FA02790889
:103C7200031CFB03FB0201300310F90CF80CFF3E9E
:103C8200031D3D2E0130FC02031D482E492E2C2E11
:103C92007D0803194D2E4E2E532EFA09FB09FA0AFE
:103CA2000319FB0A7B08F9007A08F80008000310E0
:103CB200831203136A0D6B0D83160313A1002108EF
:103CC200031D642E652E702E003083120313EB0049
:103CD2000030EA000030E9000030E800E32E8312F1
:103CE20003136808EC006908ED006A08EE006B082F
:103CF200EF001F300310EF0CEE0CED0CEC0CFF3E4E
:103D0200031D7B2E6C0883160313A000831203137A
:103D1200EA17FF30E805FF30E905FF30EA05003019
:103D2200EB05963083160313A102A11F992E9A2E3A
:103D3200B62E2108803A973E0318A02EA12EA22E5D
:103D4200652E0130031083120313EB0CEA0CE90C0D
:103D5200E80CFF3E031DA32E013083160313A107B7
:103D6200031DB42EB52EA22ED12E20302102031C0B
:103D7200BB2EBC2ECC2E652E013083120313EC0019
:103D82000310E80DE90DEA0DEB0DEC0BC12E01302D
:103D920083160313A1022108031DD02ED12EBD2E9E
:103DA20020080319D52ED62EE32E83120313E80919
:103DB200E909EA09EB09E80A0319E90A0319EA0A17
:103DC2000319EB0A0800831603130811881108125D
:103DD2008812081388138230F500DD30F400F40BEA
:103DE200F02EF50BF02EF52E03300A168A11022062
:103DF2000A168A152130F5007630F400F40BFF2EF6
:103E0200F50BFF2E000003300A168A1102200A1653
:103E12008A154830F5006C30F400F40B0E2FF50BC8
:103E22000E2F000003300A168A1102200A168A1584
:103E32002130F5007630F400F40B1D2FF50B1D2F09
:103E4200000002300A168A1102200A168A15213051
:103E5200F5007630F400F40B2C2FF50B2C2F00001C
:103E620002300A168A1102200A168A1508300A162A
:103E72008A1102200A168A152130F5007630F400E4
:103E8200F40B412FF50B412F000000300A168A1166
:103E920002200A168A150C300A168A1102200A1606
:103EA2008A152130F5007630F400F40B562FF50B0D
:103EB200562F000000300A168A1102200A168A15AF
:103EC20001300A168A1102200A168A158230F5007C
:103ED200DD30F400F40B6B2FF50B6B2F702F080005
:103EE200F401F40A01300A168A15A0230A168A156B
:103EF2004B3083120313A5000A168A1578230A167B
:103F02008A15E03083160313A8000030A9002808A0
:103F120084008317291C83130008A200840A000866
:103F2200A300840A0008A400840A0008A5000A1657
:103F32008A113E230A168A15453083120313A500FF
:103F42000A168A1578230A168A15E4308316031393
:103F5200A8000030A900280884008317291C8313B5
:103F62000008A200840A0008A300840A0008A40032
:103F7200840A0008A5000A168A113E230A168A1529
:103F8200F401F40A02300A168A15A0230A168A15C9
:103F92003E3083120313A5000A168A1578230A16E7
:103FA2008A15E83083160313A8000030A9002808F8
:103FB20084008317291C83130008A200840A0008C6
:103FC200A300840A0008A400840A0008A5000A16B7
:103FD2008A113E230A168A15583083120313A5004C
:103FE2000A168A1578230A168A15831603135F08A0
:0E3FF200303E0A168A15D4240A168A150800D5
:04400E00E220FF3F6E
:00000001FF
